{
  "contractName": "Exchange",
  "abi": [
    {
      "constant": true,
      "inputs": [],
      "name": "trade",
      "outputs": [
        {
          "name": "",
          "type": "bool"
        }
      ],
      "payable": false,
      "stateMutability": "view",
      "type": "function"
    },
    {
      "constant": true,
      "inputs": [],
      "name": "owner",
      "outputs": [
        {
          "name": "",
          "type": "address"
        }
      ],
      "payable": false,
      "stateMutability": "view",
      "type": "function"
    },
    {
      "constant": true,
      "inputs": [],
      "name": "ETH_ADDRESS",
      "outputs": [
        {
          "name": "",
          "type": "address"
        }
      ],
      "payable": false,
      "stateMutability": "view",
      "type": "function"
    },
    {
      "constant": true,
      "inputs": [
        {
          "name": "",
          "type": "address"
        }
      ],
      "name": "listReserve",
      "outputs": [
        {
          "name": "",
          "type": "address"
        }
      ],
      "payable": false,
      "stateMutability": "view",
      "type": "function"
    },
    {
      "inputs": [],
      "payable": false,
      "stateMutability": "nonpayable",
      "type": "constructor"
    },
    {
      "constant": false,
      "inputs": [
        {
          "name": "_reserve",
          "type": "address"
        },
        {
          "name": "_token",
          "type": "address"
        },
        {
          "name": "_isAdd",
          "type": "bool"
        }
      ],
      "name": "addReserve",
      "outputs": [
        {
          "name": "",
          "type": "bool"
        }
      ],
      "payable": false,
      "stateMutability": "nonpayable",
      "type": "function"
    },
    {
      "constant": true,
      "inputs": [
        {
          "name": "_srcToken",
          "type": "address"
        },
        {
          "name": "_destToken",
          "type": "address"
        },
        {
          "name": "_srcAmmount",
          "type": "uint256"
        }
      ],
      "name": "getExchangeRate",
      "outputs": [
        {
          "name": "",
          "type": "uint256"
        }
      ],
      "payable": false,
      "stateMutability": "view",
      "type": "function"
    },
    {
      "constant": false,
      "inputs": [
        {
          "name": "_srcToken",
          "type": "address"
        },
        {
          "name": "_destToken",
          "type": "address"
        },
        {
          "name": "_srcAmmount",
          "type": "uint256"
        }
      ],
      "name": "exchangeToken",
      "outputs": [],
      "payable": true,
      "stateMutability": "payable",
      "type": "function"
    },
    {
      "constant": false,
      "inputs": [
        {
          "name": "_flag",
          "type": "bool"
        }
      ],
      "name": "setTradable",
      "outputs": [],
      "payable": false,
      "stateMutability": "nonpayable",
      "type": "function"
    }
  ],
  "bytecode": "0x60606040526001600260006101000a81548160ff021916908315150217905550341561002a57600080fd5b336000806101000a81548173ffffffffffffffffffffffffffffffffffffffff021916908373ffffffffffffffffffffffffffffffffffffffff160217905550611499806100796000396000f3006060604052361561008c576000357c0100000000000000000000000000000000000000000000000000000000900463ffffffff1680631f0ba6c9146100915780636b441d8a146100be5780637cd50577146101335780638da5cb5b146101585780639e3f3d48146101ad578063a734f06e14610228578063c69fd61f1461027d578063f25a104f146102f6575b600080fd5b341561009c57600080fd5b6100a461034c565b604051808215151515815260200191505060405180910390f35b34156100c957600080fd5b61011d600480803573ffffffffffffffffffffffffffffffffffffffff1690602001909190803573ffffffffffffffffffffffffffffffffffffffff1690602001909190803590602001909190505061035f565b6040518082815260200191505060405180910390f35b341561013e57600080fd5b61015660048080351515906020019091905050610819565b005b341561016357600080fd5b61016b610891565b604051808273ffffffffffffffffffffffffffffffffffffffff1673ffffffffffffffffffffffffffffffffffffffff16815260200191505060405180910390f35b34156101b857600080fd5b61020e600480803573ffffffffffffffffffffffffffffffffffffffff1690602001909190803573ffffffffffffffffffffffffffffffffffffffff1690602001909190803515159060200190919050506108b6565b604051808215151515815260200191505060405180910390f35b341561023357600080fd5b61023b610ae3565b604051808273ffffffffffffffffffffffffffffffffffffffff1673ffffffffffffffffffffffffffffffffffffffff16815260200191505060405180910390f35b341561028857600080fd5b6102b4600480803573ffffffffffffffffffffffffffffffffffffffff16906020019091905050610afb565b604051808273ffffffffffffffffffffffffffffffffffffffff1673ffffffffffffffffffffffffffffffffffffffff16815260200191505060405180910390f35b61034a600480803573ffffffffffffffffffffffffffffffffffffffff1690602001909190803573ffffffffffffffffffffffffffffffffffffffff16906020019091908035906020019091905050610b2e565b005b600260009054906101000a900460ff1681565b600080600080600073eeeeeeeeeeeeeeeeeeeeeeeeeeeeeeeeeeeeeeee73ffffffffffffffffffffffffffffffffffffffff168873ffffffffffffffffffffffffffffffffffffffff1614156104b757600160008873ffffffffffffffffffffffffffffffffffffffff1673ffffffffffffffffffffffffffffffffffffffff16815260200190815260200160002060009054906101000a900473ffffffffffffffffffffffffffffffffffffffff1693508373ffffffffffffffffffffffffffffffffffffffff166377ed0ad66001886000604051602001526040518363ffffffff167c0100000000000000000000000000000000000000000000000000000000028152600401808315151515815260200182815260200192505050602060405180830381600087803b151561049557600080fd5b6102c65a03f115156104a657600080fd5b50505060405180519050945061080e565b73eeeeeeeeeeeeeeeeeeeeeeeeeeeeeeeeeeeeeeee73ffffffffffffffffffffffffffffffffffffffff168773ffffffffffffffffffffffffffffffffffffffff16141561060757600160008973ffffffffffffffffffffffffffffffffffffffff1673ffffffffffffffffffffffffffffffffffffffff16815260200190815260200160002060009054906101000a900473ffffffffffffffffffffffffffffffffffffffff1693508373ffffffffffffffffffffffffffffffffffffffff166377ed0ad66000886000604051602001526040518363ffffffff167c0100000000000000000000000000000000000000000000000000000000028152600401808315151515815260200182815260200192505050602060405180830381600087803b15156105e557600080fd5b6102c65a03f115156105f657600080fd5b50505060405180519050945061080e565b600160008973ffffffffffffffffffffffffffffffffffffffff1673ffffffffffffffffffffffffffffffffffffffff16815260200190815260200160002060009054906101000a900473ffffffffffffffffffffffffffffffffffffffff1692508273ffffffffffffffffffffffffffffffffffffffff166377ed0ad66000886000604051602001526040518363ffffffff167c0100000000000000000000000000000000000000000000000000000000028152600401808315151515815260200182815260200192505050602060405180830381600087803b15156106ed57600080fd5b6102c65a03f115156106fe57600080fd5b505050604051805190509150600160008873ffffffffffffffffffffffffffffffffffffffff1673ffffffffffffffffffffffffffffffffffffffff16815260200190815260200160002060009054906101000a900473ffffffffffffffffffffffffffffffffffffffff1690508073ffffffffffffffffffffffffffffffffffffffff166377ed0ad66001846000604051602001526040518363ffffffff167c0100000000000000000000000000000000000000000000000000000000028152600401808315151515815260200182815260200192505050602060405180830381600087803b15156107f057600080fd5b6102c65a03f1151561080157600080fd5b5050506040518051905094505b505050509392505050565b6000809054906101000a900473ffffffffffffffffffffffffffffffffffffffff1673ffffffffffffffffffffffffffffffffffffffff163373ffffffffffffffffffffffffffffffffffffffff1614151561087457600080fd5b80600260006101000a81548160ff02191690831515021790555050565b6000809054906101000a900473ffffffffffffffffffffffffffffffffffffffff1681565b6000806000809054906101000a900473ffffffffffffffffffffffffffffffffffffffff1673ffffffffffffffffffffffffffffffffffffffff163373ffffffffffffffffffffffffffffffffffffffff1614151561091457600080fd5b8215610a745784600160008673ffffffffffffffffffffffffffffffffffffffff1673ffffffffffffffffffffffffffffffffffffffff16815260200190815260200160002060006101000a81548173ffffffffffffffffffffffffffffffffffffffff021916908373ffffffffffffffffffffffffffffffffffffffff1602179055508390508073ffffffffffffffffffffffffffffffffffffffff1663095ea7b38668056bc75e2d631000006000604051602001526040518363ffffffff167c0100000000000000000000000000000000000000000000000000000000028152600401808373ffffffffffffffffffffffffffffffffffffffff1673ffffffffffffffffffffffffffffffffffffffff16815260200182815260200192505050602060405180830381600087803b1515610a4f57600080fd5b6102c65a03f11515610a6057600080fd5b505050604051805190505060019150610adb565b600160008573ffffffffffffffffffffffffffffffffffffffff1673ffffffffffffffffffffffffffffffffffffffff16815260200190815260200160002060006101000a81549073ffffffffffffffffffffffffffffffffffffffff0219169055600191505b509392505050565b73eeeeeeeeeeeeeeeeeeeeeeeeeeeeeeeeeeeeeeee81565b60016020528060005260406000206000915054906101000a900473ffffffffffffffffffffffffffffffffffffffff1681565b60008060008060008060011515600260009054906101000a900460ff161515141515610b5957600080fd5b73eeeeeeeeeeeeeeeeeeeeeeeeeeeeeeeeeeeeeeee73ffffffffffffffffffffffffffffffffffffffff168973ffffffffffffffffffffffffffffffffffffffff161415610d91573487141515610baf57600080fd5b879450600160008973ffffffffffffffffffffffffffffffffffffffff1673ffffffffffffffffffffffffffffffffffffffff16815260200190815260200160002060009054906101000a900473ffffffffffffffffffffffffffffffffffffffff1692508273ffffffffffffffffffffffffffffffffffffffff1663874fc5f83460018a6040518463ffffffff167c01000000000000000000000000000000000000000000000000000000000281526004018083151515158152602001828152602001925050506000604051808303818588803b1515610c8f57600080fd5b6125ee5a03f11515610ca057600080fd5b50505050610cc373eeeeeeeeeeeeeeeeeeeeeeeeeeeeeeeeeeeeeeee898961035f565b90508473ffffffffffffffffffffffffffffffffffffffff1663a9059cbb33836000604051602001526040518363ffffffff167c0100000000000000000000000000000000000000000000000000000000028152600401808373ffffffffffffffffffffffffffffffffffffffff1673ffffffffffffffffffffffffffffffffffffffff16815260200182815260200192505050602060405180830381600087803b1515610d7057600080fd5b6102c65a03f11515610d8157600080fd5b5050506040518051905050611462565b73eeeeeeeeeeeeeeeeeeeeeeeeeeeeeeeeeeeeeeee73ffffffffffffffffffffffffffffffffffffffff168873ffffffffffffffffffffffffffffffffffffffff16141561109457889550600160008a73ffffffffffffffffffffffffffffffffffffffff1673ffffffffffffffffffffffffffffffffffffffff16815260200190815260200160002060009054906101000a900473ffffffffffffffffffffffffffffffffffffffff1693508573ffffffffffffffffffffffffffffffffffffffff1663095ea7b385896000604051602001526040518363ffffffff167c0100000000000000000000000000000000000000000000000000000000028152600401808373ffffffffffffffffffffffffffffffffffffffff1673ffffffffffffffffffffffffffffffffffffffff16815260200182815260200192505050602060405180830381600087803b1515610ee957600080fd5b6102c65a03f11515610efa57600080fd5b50505060405180519050508573ffffffffffffffffffffffffffffffffffffffff166323b872dd33308a6000604051602001526040518463ffffffff167c0100000000000000000000000000000000000000000000000000000000028152600401808473ffffffffffffffffffffffffffffffffffffffff1673ffffffffffffffffffffffffffffffffffffffff1681526020018373ffffffffffffffffffffffffffffffffffffffff1673ffffffffffffffffffffffffffffffffffffffff1681526020018281526020019350505050602060405180830381600087803b1515610fe457600080fd5b6102c65a03f11515610ff557600080fd5b50505060405180519050508373ffffffffffffffffffffffffffffffffffffffff1663874fc5f86000896040518363ffffffff167c0100000000000000000000000000000000000000000000000000000000028152600401808315151515815260200182815260200192505050600060405180830381600087803b151561107b57600080fd5b6102c65a03f1151561108c57600080fd5b505050611461565b889550600160008a73ffffffffffffffffffffffffffffffffffffffff1673ffffffffffffffffffffffffffffffffffffffff16815260200190815260200160002060009054906101000a900473ffffffffffffffffffffffffffffffffffffffff1693508573ffffffffffffffffffffffffffffffffffffffff1663095ea7b385896000604051602001526040518363ffffffff167c0100000000000000000000000000000000000000000000000000000000028152600401808373ffffffffffffffffffffffffffffffffffffffff1673ffffffffffffffffffffffffffffffffffffffff16815260200182815260200192505050602060405180830381600087803b15156111a457600080fd5b6102c65a03f115156111b557600080fd5b50505060405180519050508573ffffffffffffffffffffffffffffffffffffffff166323b872dd33308a6000604051602001526040518463ffffffff167c0100000000000000000000000000000000000000000000000000000000028152600401808473ffffffffffffffffffffffffffffffffffffffff1673ffffffffffffffffffffffffffffffffffffffff1681526020018373ffffffffffffffffffffffffffffffffffffffff1673ffffffffffffffffffffffffffffffffffffffff1681526020018281526020019350505050602060405180830381600087803b151561129f57600080fd5b6102c65a03f115156112b057600080fd5b50505060405180519050508373ffffffffffffffffffffffffffffffffffffffff1663874fc5f86000896040518363ffffffff167c0100000000000000000000000000000000000000000000000000000000028152600401808315151515815260200182815260200192505050600060405180830381600087803b151561133657600080fd5b6102c65a03f1151561134757600080fd5b5050506113698973eeeeeeeeeeeeeeeeeeeeeeeeeeeeeeeeeeeeeeee8961035f565b9150879450600160008973ffffffffffffffffffffffffffffffffffffffff1673ffffffffffffffffffffffffffffffffffffffff16815260200190815260200160002060009054906101000a900473ffffffffffffffffffffffffffffffffffffffff1692508273ffffffffffffffffffffffffffffffffffffffff1663874fc5f8836001856040518463ffffffff167c01000000000000000000000000000000000000000000000000000000000281526004018083151515158152602001828152602001925050506000604051808303818588803b151561144b57600080fd5b6125ee5a03f1151561145c57600080fd5b505050505b5b5050505050505050505600a165627a7a723058201a7dc2f0532c166ce213979138a2c0f488dde5cde388a3d0d67fdfca5d2580d80029",
  "source": "pragma solidity 0.4.17;\n\nimport \"./Reserve.sol\";\nimport {TestToken} from \"./TestToken.sol\";\n\ncontract Exchange {\n    address public owner;\n    address public constant ETH_ADDRESS =\n        0xeeeeeeeeeeeeeeeeeeeeeeeeeeeeeeeeeeeeeeee;\n    mapping(address => address) public listReserve;\n    uint256 private constant inWei = 10 ** 18;\n    bool public trade = true;\n\n    function Exchange() public {\n        owner = msg.sender;\n    }\n\n    function addReserve(\n        address _reserve,\n        address _token,\n        bool _isAdd\n    ) public onlyOwner returns (bool) {\n        if (_isAdd) {\n            listReserve[_token] = _reserve;\n            TestToken token = TestToken(_token);\n            token.approve(_reserve, 100 * 1e18);\n            return true;\n        } else {\n            delete listReserve[_token];\n            return true;\n        }\n    }\n\n    function getExchangeRate(\n        address _srcToken,\n        address _destToken,\n        uint256 _srcAmmount\n    ) public view returns (uint256) {\n        //if _srcToken = ETH => buy token\n        if (_srcToken == ETH_ADDRESS) {\n            Reserve re = Reserve(listReserve[_destToken]);\n            return re.getExchangeRate(true, _srcAmmount);\n        }\n        //else if _destToken = ETH => sell token\n        else if (_destToken == ETH_ADDRESS) {\n            re = Reserve(listReserve[_srcToken]);\n            return re.getExchangeRate(false, _srcAmmount);\n        }\n        //else exchange token to token\n        else {\n            Reserve reSrc = Reserve(listReserve[_srcToken]);\n            uint256 weiRecieved = reSrc.getExchangeRate(false, _srcAmmount);\n            Reserve reDest = Reserve(listReserve[_destToken]);\n            return reDest.getExchangeRate(true, weiRecieved);\n        }\n    }\n\n    function exchangeToken(address _srcToken, address _destToken, uint _srcAmmount) public payable onlyTradable {\n        \n        TestToken srcTokenContract;\n        TestToken destTokenContract;\n        Reserve srcReserve;\n        Reserve destReserve;\n        uint weiRecieved;\n        uint tokenReceived;\n        \n          //if _srcToken = ETH => buy token\n          \n        if(_srcToken == ETH_ADDRESS){\n            \n            require(_srcAmmount == msg.value);\n            destTokenContract = TestToken(_destToken);\n            destReserve = Reserve(listReserve[_destToken]);\n            destReserve.exchange.value(msg.value)(true, _srcAmmount);\n            tokenReceived = getExchangeRate(ETH_ADDRESS, _destToken, _srcAmmount);\n            destTokenContract.transfer(msg.sender, tokenReceived);\n            \n        } else if (_destToken == ETH_ADDRESS){ //else if _destToken = ETH => sell token\n        \n            srcTokenContract = TestToken(_srcToken);\n            srcReserve = Reserve(listReserve[_srcToken]);\n            \n            srcTokenContract.approve(address(srcReserve), _srcAmmount);\n            srcTokenContract.transferFrom(msg.sender, address(this), _srcAmmount);\n\n            srcReserve.exchange(false, _srcAmmount);\n            // weiRecieved = getExchangeRate(_srcToken, ETH_ADDRESS, _srcAmmount);\n            // msg.sender.transfer(weiRecieved);\n            \n        }else { //else exchange token to token\n            //sell token\n            srcTokenContract = TestToken(_srcToken);\n            srcReserve = Reserve(listReserve[_srcToken]);\n\n            srcTokenContract.approve(address(srcReserve), _srcAmmount);\n            srcTokenContract.transferFrom(msg.sender, this, _srcAmmount);\n\n            srcReserve.exchange(false, _srcAmmount);\n            weiRecieved = getExchangeRate(_srcToken, ETH_ADDRESS, _srcAmmount);\n            \n            //buy token\n            destTokenContract = TestToken(_destToken);\n            destReserve = Reserve(listReserve[_destToken]);\n\n            destReserve.exchange.value(weiRecieved)(true, weiRecieved);\n            // tokenReceived = getExchangeRate(ETH_ADDRESS, _destToken, weiRecieved);\n            // destTokenContract.transfer(msg.sender, tokenReceived);\n            \n        }\n    }\n\n    function setTradable(bool _flag) public onlyOwner {\n        trade = _flag;\n    }\n\n    modifier onlyOwner() {\n        require(msg.sender == owner);\n        _;\n    }\n\n    modifier onlyTradable() {\n        require(trade == true);\n        _;\n    }\n}\n",
  "sourcePath": "E:\\git\\source\\contract\\contracts\\Exchange.sol",
  "compiler": {
    "name": "solc",
    "version": "0.4.17+commit.bdeb9e52.Emscripten.clang"
  },
  "schemaVersion": "3.4.13",
  "updatedAt": "2023-04-25T01:58:01.159Z",
  "networkType": "ethereum",
  "devdoc": {
    "methods": {}
  },
  "userdoc": {
    "methods": {}
  }
}