{
  "contractName": "Reserve",
  "abi": [
    {
      "constant": true,
      "inputs": [],
      "name": "trade",
      "outputs": [
        {
          "name": "",
          "type": "bool"
        }
      ],
      "payable": false,
      "stateMutability": "view",
      "type": "function"
    },
    {
      "constant": true,
      "inputs": [],
      "name": "decimals",
      "outputs": [
        {
          "name": "",
          "type": "uint256"
        }
      ],
      "payable": false,
      "stateMutability": "view",
      "type": "function"
    },
    {
      "constant": true,
      "inputs": [],
      "name": "sellRate",
      "outputs": [
        {
          "name": "",
          "type": "uint256"
        }
      ],
      "payable": false,
      "stateMutability": "view",
      "type": "function"
    },
    {
      "constant": true,
      "inputs": [],
      "name": "supportToken",
      "outputs": [
        {
          "name": "",
          "type": "address"
        }
      ],
      "payable": false,
      "stateMutability": "view",
      "type": "function"
    },
    {
      "constant": true,
      "inputs": [],
      "name": "owner",
      "outputs": [
        {
          "name": "",
          "type": "address"
        }
      ],
      "payable": false,
      "stateMutability": "view",
      "type": "function"
    },
    {
      "constant": true,
      "inputs": [],
      "name": "reservedToken",
      "outputs": [
        {
          "name": "",
          "type": "address"
        }
      ],
      "payable": false,
      "stateMutability": "view",
      "type": "function"
    },
    {
      "constant": true,
      "inputs": [],
      "name": "funds",
      "outputs": [
        {
          "name": "ethStored",
          "type": "uint256"
        },
        {
          "name": "tokenStored",
          "type": "uint256"
        }
      ],
      "payable": false,
      "stateMutability": "view",
      "type": "function"
    },
    {
      "constant": true,
      "inputs": [],
      "name": "buyRate",
      "outputs": [
        {
          "name": "",
          "type": "uint256"
        }
      ],
      "payable": false,
      "stateMutability": "view",
      "type": "function"
    },
    {
      "inputs": [
        {
          "name": "_name",
          "type": "string"
        },
        {
          "name": "_symbol",
          "type": "string"
        },
        {
          "name": "_decimals",
          "type": "uint256"
        }
      ],
      "payable": false,
      "stateMutability": "nonpayable",
      "type": "constructor"
    },
    {
      "payable": true,
      "stateMutability": "payable",
      "type": "fallback"
    },
    {
      "constant": true,
      "inputs": [],
      "name": "getTokenAddress",
      "outputs": [
        {
          "name": "",
          "type": "address"
        }
      ],
      "payable": false,
      "stateMutability": "view",
      "type": "function"
    },
    {
      "constant": false,
      "inputs": [
        {
          "name": "_token",
          "type": "address"
        },
        {
          "name": "_amount",
          "type": "uint256"
        },
        {
          "name": "_destAddress",
          "type": "address"
        }
      ],
      "name": "withdrawFunds",
      "outputs": [],
      "payable": false,
      "stateMutability": "nonpayable",
      "type": "function"
    },
    {
      "constant": false,
      "inputs": [
        {
          "name": "_buyRate",
          "type": "uint256"
        },
        {
          "name": "_sellRate",
          "type": "uint256"
        }
      ],
      "name": "setExchangeRates",
      "outputs": [],
      "payable": false,
      "stateMutability": "nonpayable",
      "type": "function"
    },
    {
      "constant": true,
      "inputs": [
        {
          "name": "_isBuy",
          "type": "bool"
        },
        {
          "name": "_srcAmount",
          "type": "uint256"
        }
      ],
      "name": "getExchangeRate",
      "outputs": [
        {
          "name": "",
          "type": "uint256"
        }
      ],
      "payable": false,
      "stateMutability": "view",
      "type": "function"
    },
    {
      "constant": false,
      "inputs": [
        {
          "name": "_isBuy",
          "type": "bool"
        },
        {
          "name": "_srcAmount",
          "type": "uint256"
        }
      ],
      "name": "exchange",
      "outputs": [],
      "payable": true,
      "stateMutability": "payable",
      "type": "function"
    },
    {
      "constant": false,
      "inputs": [
        {
          "name": "_flag",
          "type": "bool"
        }
      ],
      "name": "setTradable",
      "outputs": [],
      "payable": false,
      "stateMutability": "nonpayable",
      "type": "function"
    }
  ],
  "bytecode": "0x6060604052607860065561012c6007556001600860006101000a81548160ff021916908315150217905550341561003557600080fd5b604051611f47380380611f478339810160405280805182019190602001805182019190602001805190602001909190505033600360006101000a81548173ffffffffffffffffffffffffffffffffffffffff021916908373ffffffffffffffffffffffffffffffffffffffff1602179055508282826100b2610322565b808060200180602001848152602001838103835286818151815260200191508051906020019080838360005b838110156100f95780820151818401526020810190506100de565b50505050905090810190601f1680156101265780820380516001836020036101000a031916815260200191505b50838103825285818151815260200191508051906020019080838360005b8381101561015f578082015181840152602081019050610144565b50505050905090810190601f16801561018c5780820380516001836020036101000a031916815260200191505b5095505050505050604051809103906000f08015156101aa57600080fd5b600260006101000a81548173ffffffffffffffffffffffffffffffffffffffff021916908373ffffffffffffffffffffffffffffffffffffffff160217905550600260009054906101000a900473ffffffffffffffffffffffffffffffffffffffff16600560006101000a81548173ffffffffffffffffffffffffffffffffffffffff021916908373ffffffffffffffffffffffffffffffffffffffff160217905550600260009054906101000a900473ffffffffffffffffffffffffffffffffffffffff1673ffffffffffffffffffffffffffffffffffffffff1663313ce5676000604051602001526040518163ffffffff167c0100000000000000000000000000000000000000000000000000000000028152600401602060405180830381600087803b15156102db57600080fd5b6102c65a03f115156102ec57600080fd5b5050506040518051905060048190555060008060000181905550600454600a0a6298968002600060010181905550505050610332565b60405161108680610ec183390190565b610b80806103416000396000f300606060405236156100ce576000357c0100000000000000000000000000000000000000000000000000000000900463ffffffff16806310fe9ae8146100e25780631f0ba6c914610137578063313ce5671461016457806347c6b45e1461018d5780636217229b146101ee57806377ed0ad6146102175780637cd5057714610259578063845ad8131461027e578063874fc5f8146102d35780638da5cb5b146102f6578063c6f256701461034b578063c89f2ce4146103a0578063e637a44b146103d0578063fc37987b146103fc575b346000800160008282540192505081905550005b34156100ed57600080fd5b6100f5610425565b604051808273ffffffffffffffffffffffffffffffffffffffff1673ffffffffffffffffffffffffffffffffffffffff16815260200191505060405180910390f35b341561014257600080fd5b61014a61044f565b604051808215151515815260200191505060405180910390f35b341561016f57600080fd5b610177610462565b6040518082815260200191505060405180910390f35b341561019857600080fd5b6101ec600480803573ffffffffffffffffffffffffffffffffffffffff1690602001909190803590602001909190803573ffffffffffffffffffffffffffffffffffffffff16906020019091905050610468565b005b34156101f957600080fd5b6102016106e4565b6040518082815260200191505060405180910390f35b341561022257600080fd5b610243600480803515159060200190919080359060200190919050506106ea565b6040518082815260200191505060405180910390f35b341561026457600080fd5b61027c60048080351515906020019091905050610712565b005b341561028957600080fd5b61029161078b565b604051808273ffffffffffffffffffffffffffffffffffffffff1673ffffffffffffffffffffffffffffffffffffffff16815260200191505060405180910390f35b6102f4600480803515159060200190919080359060200190919050506107b1565b005b341561030157600080fd5b610309610a82565b604051808273ffffffffffffffffffffffffffffffffffffffff1673ffffffffffffffffffffffffffffffffffffffff16815260200191505060405180910390f35b341561035657600080fd5b61035e610aa8565b604051808273ffffffffffffffffffffffffffffffffffffffff1673ffffffffffffffffffffffffffffffffffffffff16815260200191505060405180910390f35b34156103ab57600080fd5b6103b3610ace565b604051808381526020018281526020019250505060405180910390f35b34156103db57600080fd5b6103fa6004808035906020019091908035906020019091905050610ae0565b005b341561040757600080fd5b61040f610b4e565b6040518082815260200191505060405180910390f35b6000600260009054906101000a900473ffffffffffffffffffffffffffffffffffffffff16905090565b600860009054906101000a900460ff1681565b60045481565b6000600360009054906101000a900473ffffffffffffffffffffffffffffffffffffffff1673ffffffffffffffffffffffffffffffffffffffff163373ffffffffffffffffffffffffffffffffffffffff161415156104c657600080fd5b73eeeeeeeeeeeeeeeeeeeeeeeeeeeeeeeeeeeeeeee73ffffffffffffffffffffffffffffffffffffffff168473ffffffffffffffffffffffffffffffffffffffff161415610574576000800154831115151561052157600080fd5b8173ffffffffffffffffffffffffffffffffffffffff166108fc849081150290604051600060405180830381858888f19350505050151561056157600080fd5b8260008001600082825403925050819055505b600560009054906101000a900473ffffffffffffffffffffffffffffffffffffffff1673ffffffffffffffffffffffffffffffffffffffff168473ffffffffffffffffffffffffffffffffffffffff1614156106de5760006001015483111515156105de57600080fd5b600560009054906101000a900473ffffffffffffffffffffffffffffffffffffffff1690508073ffffffffffffffffffffffffffffffffffffffff1663a9059cbb83856000604051602001526040518363ffffffff167c0100000000000000000000000000000000000000000000000000000000028152600401808373ffffffffffffffffffffffffffffffffffffffff1673ffffffffffffffffffffffffffffffffffffffff16815260200182815260200192505050602060405180830381600087803b15156106ae57600080fd5b6102c65a03f115156106bf57600080fd5b5050506040518051905050826000600101600082825403925050819055505b50505050565b60075481565b60008261070457600754828115156106fe57fe5b0461070a565b81600654025b905092915050565b600360009054906101000a900473ffffffffffffffffffffffffffffffffffffffff1673ffffffffffffffffffffffffffffffffffffffff163373ffffffffffffffffffffffffffffffffffffffff1614151561076e57600080fd5b80600860006101000a81548160ff02191690831515021790555050565b600560009054906101000a900473ffffffffffffffffffffffffffffffffffffffff1681565b60008060011515600860009054906101000a900460ff1615151415156107d657600080fd5b600560009054906101000a900473ffffffffffffffffffffffffffffffffffffffff169150831561092e57348314151561080f57600080fd5b61081a6001846106ea565b90506000811415801561083257508060006001015410155b151561083d57600080fd5b8173ffffffffffffffffffffffffffffffffffffffff1663a9059cbb33836000604051602001526040518363ffffffff167c0100000000000000000000000000000000000000000000000000000000028152600401808373ffffffffffffffffffffffffffffffffffffffff1673ffffffffffffffffffffffffffffffffffffffff16815260200182815260200192505050602060405180830381600087803b15156108e857600080fd5b6102c65a03f115156108f957600080fd5b505050604051805190505080600060010160008282540392505081905550346000800160008282540192505081905550610a7c565b8173ffffffffffffffffffffffffffffffffffffffff166323b872dd3330866000604051602001526040518463ffffffff167c0100000000000000000000000000000000000000000000000000000000028152600401808473ffffffffffffffffffffffffffffffffffffffff1673ffffffffffffffffffffffffffffffffffffffff1681526020018373ffffffffffffffffffffffffffffffffffffffff1673ffffffffffffffffffffffffffffffffffffffff1681526020018281526020019350505050602060405180830381600087803b1515610a0d57600080fd5b6102c65a03f11515610a1e57600080fd5b5050506040518051905050610a346000846106ea565b905060008114158015610a4b575080600080015410155b1515610a5657600080fd5b826000600101600082825401925050819055508060008001600082825403925050819055505b50505050565b600360009054906101000a900473ffffffffffffffffffffffffffffffffffffffff1681565b600260009054906101000a900473ffffffffffffffffffffffffffffffffffffffff1681565b60008060000154908060010154905082565b600360009054906101000a900473ffffffffffffffffffffffffffffffffffffffff1673ffffffffffffffffffffffffffffffffffffffff163373ffffffffffffffffffffffffffffffffffffffff16141515610b3c57600080fd5b81600681905550806007819055505050565b600654815600a165627a7a723058206186b185fd9c6b295922207f82cd5da092e580a4211baf3d81b7996f98ccfa31002960606040526040805190810160405280600481526020017f5465737400000000000000000000000000000000000000000000000000000000815250600390805190602001906200005192919062000182565b506040805190810160405280600381526020017f5453540000000000000000000000000000000000000000000000000000000000815250600490805190602001906200009f92919062000182565b50601260055568056bc75e2d631000006006553415620000be57600080fd5b604051620010863803806200108683398101604052808051820191906020018051820191906020018051906020019091905050600654600081905550600654600160003373ffffffffffffffffffffffffffffffffffffffff1673ffffffffffffffffffffffffffffffffffffffff1681526020019081526020016000208190555082600390805190602001906200015892919062000182565b5081600490805190602001906200017192919062000182565b508060058190555050505062000231565b828054600181600116156101000203166002900490600052602060002090601f016020900481019282601f10620001c557805160ff1916838001178555620001f6565b82800160010185558215620001f6579182015b82811115620001f5578251825591602001919060010190620001d8565b5b50905062000205919062000209565b5090565b6200022e91905b808211156200022a57600081600090555060010162000210565b5090565b90565b610e4580620002416000396000f300606060405236156100b8576000357c0100000000000000000000000000000000000000000000000000000000900463ffffffff16806306fdde03146100bd578063095ea7b31461014b57806318160ddd146101a557806323b872dd146101ce5780632ff2e9dc14610247578063313ce5671461027057806342966c681461029957806370a08231146102d457806379cc67901461032157806395d89b411461037b578063a9059cbb14610409578063dd62ed3e14610463575b600080fd5b34156100c857600080fd5b6100d06104cf565b6040518080602001828103825283818151815260200191508051906020019080838360005b838110156101105780820151818401526020810190506100f5565b50505050905090810190601f16801561013d5780820380516001836020036101000a031916815260200191505b509250505060405180910390f35b341561015657600080fd5b61018b600480803573ffffffffffffffffffffffffffffffffffffffff1690602001909190803590602001909190505061056d565b604051808215151515815260200191505060405180910390f35b34156101b057600080fd5b6101b861065f565b6040518082815260200191505060405180910390f35b34156101d957600080fd5b61022d600480803573ffffffffffffffffffffffffffffffffffffffff1690602001909190803573ffffffffffffffffffffffffffffffffffffffff16906020019091908035906020019091905050610665565b604051808215151515815260200191505060405180910390f35b341561025257600080fd5b61025a610922565b6040518082815260200191505060405180910390f35b341561027b57600080fd5b610283610928565b6040518082815260200191505060405180910390f35b34156102a457600080fd5b6102ba600480803590602001909190505061092e565b604051808215151515815260200191505060405180910390f35b34156102df57600080fd5b61030b600480803573ffffffffffffffffffffffffffffffffffffffff16906020019091905050610a9d565b6040518082815260200191505060405180910390f35b341561032c57600080fd5b610361600480803573ffffffffffffffffffffffffffffffffffffffff16906020019091908035906020019091905050610ae6565b604051808215151515815260200191505060405180910390f35b341561038657600080fd5b61038e610b05565b6040518080602001828103825283818151815260200191508051906020019080838360005b838110156103ce5780820151818401526020810190506103b3565b50505050905090810190601f1680156103fb5780820380516001836020036101000a031916815260200191505b509250505060405180910390f35b341561041457600080fd5b610449600480803573ffffffffffffffffffffffffffffffffffffffff16906020019091908035906020019091905050610ba3565b604051808215151515815260200191505060405180910390f35b341561046e57600080fd5b6104b9600480803573ffffffffffffffffffffffffffffffffffffffff1690602001909190803573ffffffffffffffffffffffffffffffffffffffff16906020019091905050610d55565b6040518082815260200191505060405180910390f35b60038054600181600116156101000203166002900480601f0160208091040260200160405190810160405280929190818152602001828054600181600116156101000203166002900480156105655780601f1061053a57610100808354040283529160200191610565565b820191906000526020600020905b81548152906001019060200180831161054857829003601f168201915b505050505081565b600081600260003373ffffffffffffffffffffffffffffffffffffffff1673ffffffffffffffffffffffffffffffffffffffff16815260200190815260200160002060008573ffffffffffffffffffffffffffffffffffffffff1673ffffffffffffffffffffffffffffffffffffffff168152602001908152602001600020819055508273ffffffffffffffffffffffffffffffffffffffff163373ffffffffffffffffffffffffffffffffffffffff167f8c5be1e5ebec7d5bd14f71427d1e84f3dd0314c0f7b2291e5b200ac8c7c3b925846040518082815260200191505060405180910390a36001905092915050565b60005481565b600080600260008673ffffffffffffffffffffffffffffffffffffffff1673ffffffffffffffffffffffffffffffffffffffff16815260200190815260200160002060003373ffffffffffffffffffffffffffffffffffffffff1673ffffffffffffffffffffffffffffffffffffffff168152602001908152602001600020549050808311156106f457600080fd5b61074683600160008773ffffffffffffffffffffffffffffffffffffffff1673ffffffffffffffffffffffffffffffffffffffff16815260200190815260200160002054610ddc90919063ffffffff16565b600160008673ffffffffffffffffffffffffffffffffffffffff1673ffffffffffffffffffffffffffffffffffffffff168152602001908152602001600020819055506107db83600160008873ffffffffffffffffffffffffffffffffffffffff1673ffffffffffffffffffffffffffffffffffffffff16815260200190815260200160002054610dfd90919063ffffffff16565b600160008773ffffffffffffffffffffffffffffffffffffffff1673ffffffffffffffffffffffffffffffffffffffff168152602001908152602001600020819055506108318382610dfd90919063ffffffff16565b600260008773ffffffffffffffffffffffffffffffffffffffff1673ffffffffffffffffffffffffffffffffffffffff16815260200190815260200160002060003373ffffffffffffffffffffffffffffffffffffffff1673ffffffffffffffffffffffffffffffffffffffff168152602001908152602001600020819055508373ffffffffffffffffffffffffffffffffffffffff168573ffffffffffffffffffffffffffffffffffffffff167fddf252ad1be2c89b69c2b068fc378daa952ba7f163c4a11628f55a4df523b3ef856040518082815260200191505060405180910390a360019150509392505050565b60065481565b60055481565b600061098282600160003373ffffffffffffffffffffffffffffffffffffffff1673ffffffffffffffffffffffffffffffffffffffff16815260200190815260200160002054610dfd90919063ffffffff16565b600160003373ffffffffffffffffffffffffffffffffffffffff1673ffffffffffffffffffffffffffffffffffffffff168152602001908152602001600020819055506109da82600054610dfd90919063ffffffff16565b6000819055503373ffffffffffffffffffffffffffffffffffffffff167fcc16f5dbb4873280815c1ee09dbd06736cffcc184412cf7a71a0fdb75d397ca5836040518082815260200191505060405180910390a2600073ffffffffffffffffffffffffffffffffffffffff163373ffffffffffffffffffffffffffffffffffffffff167fddf252ad1be2c89b69c2b068fc378daa952ba7f163c4a11628f55a4df523b3ef846040518082815260200191505060405180910390a360019050919050565b6000600160008373ffffffffffffffffffffffffffffffffffffffff1673ffffffffffffffffffffffffffffffffffffffff168152602001908152602001600020549050919050565b6000610af3833384610665565b50610afd8261092e565b905092915050565b60048054600181600116156101000203166002900480601f016020809104026020016040519081016040528092919081815260200182805460018160011615610100020316600290048015610b9b5780601f10610b7057610100808354040283529160200191610b9b565b820191906000526020600020905b815481529060010190602001808311610b7e57829003601f168201915b505050505081565b600060406004810160003690501015610bbb57600080fd5b610c0d83600160003373ffffffffffffffffffffffffffffffffffffffff1673ffffffffffffffffffffffffffffffffffffffff16815260200190815260200160002054610dfd90919063ffffffff16565b600160003373ffffffffffffffffffffffffffffffffffffffff1673ffffffffffffffffffffffffffffffffffffffff16815260200190815260200160002081905550610ca283600160008773ffffffffffffffffffffffffffffffffffffffff1673ffffffffffffffffffffffffffffffffffffffff16815260200190815260200160002054610ddc90919063ffffffff16565b600160008673ffffffffffffffffffffffffffffffffffffffff1673ffffffffffffffffffffffffffffffffffffffff168152602001908152602001600020819055508373ffffffffffffffffffffffffffffffffffffffff163373ffffffffffffffffffffffffffffffffffffffff167fddf252ad1be2c89b69c2b068fc378daa952ba7f163c4a11628f55a4df523b3ef856040518082815260200191505060405180910390a3600191505092915050565b6000600260008473ffffffffffffffffffffffffffffffffffffffff1673ffffffffffffffffffffffffffffffffffffffff16815260200190815260200160002060008373ffffffffffffffffffffffffffffffffffffffff1673ffffffffffffffffffffffffffffffffffffffff16815260200190815260200160002054905092915050565b6000808284019050838110151515610df357600080fd5b8091505092915050565b6000828211151515610e0e57600080fd5b8183039050929150505600a165627a7a72305820a6552625c47637df13f451ffc4ef1808e49d1e72c5b90ca0694a9b0dc61473850029",
  "source": "pragma solidity 0.4.17;\n\nimport {TestToken} from \"./TestToken.sol\";\n\ncontract Reserve {\n    struct Fund {\n        uint256 ethStored;\n        uint256 tokenStored;\n    }\n\n    Fund public funds;\n    TestToken public reservedToken;\n\n    address public owner;\n    uint256 public decimals;\n    uint256 private constant inWei = 10 ** 18;\n    address public supportToken;\n    uint256 public buyRate = 120;\n    uint256 public sellRate = 300;\n    address private constant ETH_ADDRESS =\n        0xeeeeeeeeeeeeeeeeeeeeeeeeeeeeeeeeeeeeeeee;\n    bool public trade = true;\n\n    // function Reserve(address _supportToken) public {\n    //     owner = msg.sender;\n    //     supportToken = _supportToken;\n    //     TestToken tokenContract = TestToken(supportToken);\n    //     decimals = tokenContract.decimals();\n        \n    //     funds.ethStored = 0;\n    //     funds.tokenStored = 10000000 * (10 ** decimals);\n    // }\n\n\n    function Reserve(string _name, string _symbol, uint _decimals) public {\n        owner = msg.sender;\n        reservedToken = new TestToken(_name, _symbol, _decimals);\n        supportToken = address(reservedToken);\n        decimals = reservedToken.decimals();\n        funds.ethStored = 0;\n        funds.tokenStored = 10000000 * (10 ** decimals);\n    }\n\n    function getTokenAddress() public view returns (address) {\n        return address(reservedToken);\n    }\n\n    function() public payable {\n        funds.ethStored += msg.value;\n    }\n\n    function withdrawFunds(\n        address _token,\n        uint256 _amount,\n        address _destAddress\n    ) public onlyOwner {\n        if (_token == ETH_ADDRESS) {\n            require(_amount <= funds.ethStored);\n            _destAddress.transfer(_amount);\n            funds.ethStored -= _amount;\n        }\n        if (_token == supportToken) {\n            require(_amount <= funds.tokenStored);\n            TestToken tokenContract = TestToken(supportToken);\n            tokenContract.transfer(_destAddress, _amount);\n            funds.tokenStored -= _amount;\n        }\n    }\n\n    function setExchangeRates(\n        uint256 _buyRate,\n        uint256 _sellRate\n    ) public onlyOwner {\n        buyRate = _buyRate;\n        sellRate = _sellRate;\n    }\n\n    function getExchangeRate(\n        bool _isBuy,\n        uint256 _srcAmount\n    ) public view returns (uint256) {\n        return _isBuy ? buyRate * _srcAmount : _srcAmount / sellRate;\n        // if (_isBuy) {\n        //     if (funds.tokenStored > 0) {\n        //         return (((_srcAmount * (10**decimals) * (10**decimals)) /\n        //             inWei) / buyRate);\n        //     }\n        //     return 0;\n        // } else {\n        //     if (funds.ethStored > 0) {\n        //         return\n        //             ((_srcAmount * (10**decimals) * inWei)) /\n        //             (sellRate * (10**decimals));\n        //     }\n        //     return 0;\n        // }\n    }\n\n    function toDecimal(uint256 _value) private view returns (uint256) {\n        return _value * (10 ** decimals);\n    }\n\n    function exchange(\n        bool _isBuy,\n        uint256 _srcAmount\n    ) public payable onlyTradable {\n        TestToken tokenContract = TestToken(supportToken);\n        uint256 transferAmount;\n        if (_isBuy) {\n            require(_srcAmount == msg.value);\n            transferAmount = getExchangeRate(true, _srcAmount);\n            //check enough token to send back\n            require(transferAmount != 0 && funds.tokenStored >= transferAmount);\n            tokenContract.transfer(msg.sender, transferAmount);\n            funds.tokenStored -= transferAmount;\n            funds.ethStored += msg.value;\n        } else {\n            tokenContract.transferFrom(msg.sender, address(this), _srcAmount);\n            transferAmount = getExchangeRate(false, _srcAmount);\n            // //check enough ether to send back\n            require(transferAmount != 0 && funds.ethStored >= transferAmount);\n            // msg.sender.transfer(transferAmount);\n            funds.tokenStored += _srcAmount;\n            funds.ethStored -= transferAmount;\n        }\n    }\n\n    function setTradable(bool _flag) public onlyOwner {\n        trade = _flag;\n    }\n\n    modifier onlyOwner() {\n        require(msg.sender == owner);\n        _;\n    }\n\n    modifier onlyTradable() {\n        require(trade == true);\n        _;\n    }\n}\n",
  "sourcePath": "E:\\git\\source\\contract\\contracts\\Reserve.sol",
  "compiler": {
    "name": "solc",
    "version": "0.4.17+commit.bdeb9e52.Emscripten.clang"
  },
  "schemaVersion": "3.4.13",
  "updatedAt": "2023-04-25T01:58:01.149Z",
  "networkType": "ethereum",
  "devdoc": {
    "methods": {}
  },
  "userdoc": {
    "methods": {}
  }
}